:02000000E428F2
:08000800FF00030E8312031335
:10001000B4000A0EB500040EB6008A110A120C29AB
:10002000C308031D14280800F93000000000000078
:10003000000000000000FF3E031D15280000000026
:1000400000000000000000000000C30B142808009E
:10005000FA30C3001020FA30C3001020FA30C30079
:100060001020FA30C3001020C20B282808000730E7
:10007000831603139F00C03081008501FF30831277
:100080008500FE30831605058500FE3083120505C8
:1000900085000330C2002820FD3083160505850049
:1000A000FD308312050585000230C2002820FE3095
:1000B000831605058500FE3083120505C200013058
:1000C00042048500FD30831605058500FD3083124E
:1000D0000505C200023042048500FB308316050589
:1000E0008500FB308312050585000330C2002820FF
:1000F000FB30831605058500FB3083120505C20021
:10010000043042048500FF30C3001020FF30C300DC
:100110001020BE30C3001020FB308316050585007B
:10012000FB30831205058500FF30C3001020FF302F
:10013000C3001020BE30C3001020FB30831605051D
:100140008500FB3083120505C2000430420485009F
:10015000FF30C3001020FF30C3001020BE30C300AA
:100160001020FB30831605058500FB308312050542
:100170008500FF30C3001020FF30C3001020BE30C8
:10018000C3001020FB30831605058500FB30831269
:100190000505C200043042048500FD3083160505C4
:1001A0008500FD308312050585000230C20028203D
:1001B000FD30831605058500FD3083120505C2005C
:1001C0000230420485004128D53083120313A00079
:1001D000C430A100BB30A200DC30A300A401A50103
:1001E000A601A701A801A901AA01AB01AC01AD01BB
:1001F000AE01AF01BC01BD01B701B801BE01BF0135
:10020000C001C101B001B101B201B301BA01BB012A
:10021000B9018A110A12372883120313360E84009B
:0E022000350E8A00340E8300FF0E7F0E09009B
:02400E007A3FF7
:00000001FF
