:02000000722864
:08000800FF00030E8312031335
:10001000B4000A0EB500040EB6008A110A129A281E
:10002000C408031D14280800F93000000000000077
:10003000000000000000FF3E031D15280000000026
:1000400000000000000000000000C40B142808009D
:10005000FA30C4001020FA30C4001020FA30C40076
:100060001020FA30C4001020C30B282808000730E5
:10007000831603139F00C0308100FE300605860002
:10008000FE3083120605C3000130430486000130B0
:10009000C200013083160504850001308312050576
:1000A000C300C40143030319C40A4408C200C208C0
:1000B000031D6628FE30831606058600FE30831277
:1000C000060586000530C30028204928FE30831627
:1000D00006058600FE3083120605C3000130430486
:1000E00086004928D53083120313A000C430A10034
:1000F000BB30A200DC30A300A401A501A601A7012A
:10010000A801A901AA01AB01AC01AD01AE01AF018B
:10011000BC01BD01B701B801BE01BF01C001C101F1
:10012000B001B101B201B301BA01BB01B9018A1139
:100130000A12372883120313360E8400350E8A0004
:0A014000340E8300FF0E7F0E09004D
:02400E007A3FF7
:00000001FF
