:02000000742862
:08000800FF00030E8312031335
:10001000B4000A0EB500040EB6008A110A129C281C
:10002000C208031D14280800F93000000000000079
:10003000000000000000FF3E031D15280000000026
:1000400000000000000000000000C20B142808009F
:100050000730831603139F00C03081008601FF30F4
:1000600083128600831686017E3083128600C83094
:10007000C200102083168601BD3083128600C8306E
:10008000C200102083168601DB3083128600C83040
:10009000C200102083168601E73083128600C83024
:1000A000C200102083168601DB3083128600FF30E9
:1000B000C2001020F530C200102083168601BD302A
:1000C00083128600FF30C2001020F530C2001020DD
:1000D000831686017E3083128600FF30C200102016
:1000E000F530C20010203228D53083120313A0004F
:1000F000C430A100BB30A200DC30A300A401A501E4
:10010000A601A701A801A901AA01AB01AC01AD019B
:10011000AE01AF01BC01BD01B701B801BE01BF0115
:10012000C001C101B001B101B201B301BA01BB010B
:10013000B9018A110A12282883120313360E84008B
:0E014000350E8A00340E8300FF0E7F0E09007C
:02400E007A3FF7
:00000001FF
